{
  "contractName": "FL_StateChannel",
  "abi": [
    {
      "inputs": [
        {
          "internalType": "address",
          "name": "_FSCoinAddr",
          "type": "address"
        },
        {
          "internalType": "uint256",
          "name": "_taskID",
          "type": "uint256"
        },
        {
          "internalType": "string",
          "name": "_model_name",
          "type": "string"
        },
        {
          "internalType": "string[]",
          "name": "_super_paras",
          "type": "string[]"
        },
        {
          "internalType": "uint256[2]",
          "name": "_epochs",
          "type": "uint256[2]"
        },
        {
          "internalType": "uint256",
          "name": "_v",
          "type": "uint256"
        },
        {
          "internalType": "uint256[4]",
          "name": "_proportion",
          "type": "uint256[4]"
        },
        {
          "internalType": "address[]",
          "name": "_participates",
          "type": "address[]"
        },
        {
          "internalType": "address",
          "name": "_service_demander",
          "type": "address"
        },
        {
          "internalType": "uint256[2]",
          "name": "_expiration",
          "type": "uint256[2]"
        }
      ],
      "stateMutability": "nonpayable",
      "type": "constructor"
    },
    {
      "anonymous": false,
      "inputs": [
        {
          "indexed": false,
          "internalType": "uint256",
          "name": "taskID",
          "type": "uint256"
        },
        {
          "indexed": false,
          "internalType": "address",
          "name": "pool_manager",
          "type": "address"
        },
        {
          "indexed": false,
          "internalType": "uint256",
          "name": "timestamp",
          "type": "uint256"
        }
      ],
      "name": "CloseChannel",
      "type": "event"
    },
    {
      "anonymous": false,
      "inputs": [
        {
          "indexed": false,
          "internalType": "uint256",
          "name": "taskID",
          "type": "uint256"
        },
        {
          "indexed": false,
          "internalType": "address",
          "name": "service_demander",
          "type": "address"
        },
        {
          "indexed": false,
          "internalType": "uint256",
          "name": "timestamp",
          "type": "uint256"
        }
      ],
      "name": "CommitModel",
      "type": "event"
    },
    {
      "anonymous": false,
      "inputs": [
        {
          "indexed": false,
          "internalType": "uint256",
          "name": "taskID",
          "type": "uint256"
        },
        {
          "indexed": false,
          "internalType": "address",
          "name": "participate",
          "type": "address"
        },
        {
          "indexed": false,
          "internalType": "uint256",
          "name": "amount",
          "type": "uint256"
        }
      ],
      "name": "Conversion",
      "type": "event"
    },
    {
      "anonymous": false,
      "inputs": [
        {
          "indexed": false,
          "internalType": "uint256",
          "name": "taskID",
          "type": "uint256"
        },
        {
          "indexed": false,
          "internalType": "address",
          "name": "pool_manager",
          "type": "address"
        },
        {
          "indexed": false,
          "internalType": "uint256",
          "name": "amount",
          "type": "uint256"
        }
      ],
      "name": "Deposit",
      "type": "event"
    },
    {
      "anonymous": false,
      "inputs": [
        {
          "indexed": false,
          "internalType": "uint256",
          "name": "taskID",
          "type": "uint256"
        },
        {
          "indexed": false,
          "internalType": "address",
          "name": "service_demander",
          "type": "address"
        },
        {
          "indexed": false,
          "internalType": "uint256",
          "name": "amount",
          "type": "uint256"
        }
      ],
      "name": "DepositV",
      "type": "event"
    },
    {
      "anonymous": false,
      "inputs": [
        {
          "indexed": false,
          "internalType": "uint256",
          "name": "taskID",
          "type": "uint256"
        },
        {
          "indexed": false,
          "internalType": "uint256",
          "name": "timestamp",
          "type": "uint256"
        },
        {
          "indexed": false,
          "internalType": "uint256",
          "name": "amount",
          "type": "uint256"
        }
      ],
      "name": "DestorySideReward",
      "type": "event"
    },
    {
      "anonymous": false,
      "inputs": [
        {
          "indexed": false,
          "internalType": "uint256",
          "name": "taskID",
          "type": "uint256"
        },
        {
          "indexed": false,
          "internalType": "address",
          "name": "pool_manager",
          "type": "address"
        },
        {
          "indexed": false,
          "internalType": "uint256",
          "name": "timestamp",
          "type": "uint256"
        }
      ],
      "name": "UploadModel",
      "type": "event"
    },
    {
      "inputs": [],
      "name": "FSCoinAddr",
      "outputs": [
        {
          "internalType": "address",
          "name": "",
          "type": "address"
        }
      ],
      "stateMutability": "view",
      "type": "function",
      "constant": true
    },
    {
      "inputs": [],
      "name": "V",
      "outputs": [
        {
          "internalType": "uint256",
          "name": "",
          "type": "uint256"
        }
      ],
      "stateMutability": "view",
      "type": "function",
      "constant": true
    },
    {
      "inputs": [],
      "name": "channel_state",
      "outputs": [
        {
          "internalType": "enum FL_StateChannel.Channel_State",
          "name": "",
          "type": "uint8"
        }
      ],
      "stateMutability": "view",
      "type": "function",
      "constant": true
    },
    {
      "inputs": [
        {
          "internalType": "address",
          "name": "",
          "type": "address"
        }
      ],
      "name": "conversioned",
      "outputs": [
        {
          "internalType": "bool",
          "name": "",
          "type": "bool"
        }
      ],
      "stateMutability": "view",
      "type": "function",
      "constant": true
    },
    {
      "inputs": [],
      "name": "conversioned_count",
      "outputs": [
        {
          "internalType": "uint256",
          "name": "",
          "type": "uint256"
        }
      ],
      "stateMutability": "view",
      "type": "function",
      "constant": true
    },
    {
      "inputs": [],
      "name": "depositV_flag",
      "outputs": [
        {
          "internalType": "bool",
          "name": "",
          "type": "bool"
        }
      ],
      "stateMutability": "view",
      "type": "function",
      "constant": true
    },
    {
      "inputs": [],
      "name": "deposit_value",
      "outputs": [
        {
          "internalType": "uint256",
          "name": "",
          "type": "uint256"
        }
      ],
      "stateMutability": "view",
      "type": "function",
      "constant": true
    },
    {
      "inputs": [],
      "name": "destoried",
      "outputs": [
        {
          "internalType": "bool",
          "name": "",
          "type": "bool"
        }
      ],
      "stateMutability": "view",
      "type": "function",
      "constant": true
    },
    {
      "inputs": [],
      "name": "expiration_end",
      "outputs": [
        {
          "internalType": "uint256",
          "name": "",
          "type": "uint256"
        }
      ],
      "stateMutability": "view",
      "type": "function",
      "constant": true
    },
    {
      "inputs": [],
      "name": "expiration_start",
      "outputs": [
        {
          "internalType": "uint256",
          "name": "",
          "type": "uint256"
        }
      ],
      "stateMutability": "view",
      "type": "function",
      "constant": true
    },
    {
      "inputs": [],
      "name": "global_epoch",
      "outputs": [
        {
          "internalType": "uint256",
          "name": "",
          "type": "uint256"
        }
      ],
      "stateMutability": "view",
      "type": "function",
      "constant": true
    },
    {
      "inputs": [],
      "name": "isConversion",
      "outputs": [
        {
          "internalType": "bool",
          "name": "",
          "type": "bool"
        }
      ],
      "stateMutability": "view",
      "type": "function",
      "constant": true
    },
    {
      "inputs": [],
      "name": "local_epoch",
      "outputs": [
        {
          "internalType": "uint256",
          "name": "",
          "type": "uint256"
        }
      ],
      "stateMutability": "view",
      "type": "function",
      "constant": true
    },
    {
      "inputs": [],
      "name": "model_name",
      "outputs": [
        {
          "internalType": "string",
          "name": "",
          "type": "string"
        }
      ],
      "stateMutability": "view",
      "type": "function",
      "constant": true
    },
    {
      "inputs": [
        {
          "internalType": "uint256",
          "name": "",
          "type": "uint256"
        }
      ],
      "name": "participates",
      "outputs": [
        {
          "internalType": "address",
          "name": "",
          "type": "address"
        }
      ],
      "stateMutability": "view",
      "type": "function",
      "constant": true
    },
    {
      "inputs": [],
      "name": "pool_manager",
      "outputs": [
        {
          "internalType": "address",
          "name": "",
          "type": "address"
        }
      ],
      "stateMutability": "view",
      "type": "function",
      "constant": true
    },
    {
      "inputs": [
        {
          "internalType": "uint256",
          "name": "",
          "type": "uint256"
        }
      ],
      "name": "proportion",
      "outputs": [
        {
          "internalType": "uint256",
          "name": "",
          "type": "uint256"
        }
      ],
      "stateMutability": "view",
      "type": "function",
      "constant": true
    },
    {
      "inputs": [],
      "name": "service_demander",
      "outputs": [
        {
          "internalType": "address",
          "name": "",
          "type": "address"
        }
      ],
      "stateMutability": "view",
      "type": "function",
      "constant": true
    },
    {
      "inputs": [
        {
          "internalType": "uint256",
          "name": "",
          "type": "uint256"
        }
      ],
      "name": "super_paras",
      "outputs": [
        {
          "internalType": "string",
          "name": "",
          "type": "string"
        }
      ],
      "stateMutability": "view",
      "type": "function",
      "constant": true
    },
    {
      "inputs": [],
      "name": "taskID",
      "outputs": [
        {
          "internalType": "uint256",
          "name": "",
          "type": "uint256"
        }
      ],
      "stateMutability": "view",
      "type": "function",
      "constant": true
    },
    {
      "inputs": [],
      "name": "depositV",
      "outputs": [],
      "stateMutability": "nonpayable",
      "type": "function"
    },
    {
      "inputs": [],
      "name": "deposit",
      "outputs": [],
      "stateMutability": "nonpayable",
      "type": "function"
    },
    {
      "inputs": [],
      "name": "contractBal",
      "outputs": [
        {
          "internalType": "uint256",
          "name": "",
          "type": "uint256"
        }
      ],
      "stateMutability": "view",
      "type": "function",
      "constant": true
    },
    {
      "inputs": [],
      "name": "openConversion",
      "outputs": [],
      "stateMutability": "nonpayable",
      "type": "function"
    },
    {
      "inputs": [
        {
          "internalType": "uint256",
          "name": "extendTime",
          "type": "uint256"
        }
      ],
      "name": "extendConversionEnd",
      "outputs": [],
      "stateMutability": "nonpayable",
      "type": "function"
    },
    {
      "inputs": [
        {
          "internalType": "uint256",
          "name": "participate_id",
          "type": "uint256"
        },
        {
          "internalType": "uint256",
          "name": "amount",
          "type": "uint256"
        },
        {
          "internalType": "bytes",
          "name": "signature",
          "type": "bytes"
        }
      ],
      "name": "conversion",
      "outputs": [],
      "stateMutability": "nonpayable",
      "type": "function"
    },
    {
      "inputs": [
        {
          "internalType": "bytes[]",
          "name": "_model_src",
          "type": "bytes[]"
        },
        {
          "internalType": "string",
          "name": "_file_format",
          "type": "string"
        }
      ],
      "name": "uploadModel",
      "outputs": [],
      "stateMutability": "nonpayable",
      "type": "function"
    },
    {
      "inputs": [],
      "name": "getModelData",
      "outputs": [
        {
          "internalType": "bytes[]",
          "name": "",
          "type": "bytes[]"
        },
        {
          "internalType": "string",
          "name": "",
          "type": "string"
        }
      ],
      "stateMutability": "view",
      "type": "function",
      "constant": true
    },
    {
      "inputs": [],
      "name": "commitModel",
      "outputs": [],
      "stateMutability": "nonpayable",
      "type": "function"
    },
    {
      "inputs": [],
      "name": "closeChannel",
      "outputs": [],
      "stateMutability": "nonpayable",
      "type": "function"
    }
  ],
  "bytecode": "0x60806040526127106012553480156200001757600080fd5b50604051620045b7380380620045b783398181016040528101906200003d919062000ae2565b8060016002811062000078577f4e487b7100000000000000000000000000000000000000000000000000000000600052603260045260246000fd5b602002015181600060028110620000b8577f4e487b7100000000000000000000000000000000000000000000000000000000600052603260045260246000fd5b60200201511062000100576040517f08c379a0000000000000000000000000000000000000000000000000000000008152600401620000f79062000cc8565b60405180910390fd5b896000806101000a81548173ffffffffffffffffffffffffffffffffffffffff021916908373ffffffffffffffffffffffffffffffffffffffff1602179055508860018190555087600290805190602001906200015f92919062000589565b508660039080519060200190620001789291906200061a565b5085600060028110620001b4577f4e487b7100000000000000000000000000000000000000000000000000000000600052603260045260246000fd5b602002015160048190555085600160028110620001fa577f4e487b7100000000000000000000000000000000000000000000000000000000600052603260045260246000fd5b6020020151600581905550846006819055508360079060046200021f92919062000681565b5060005b6004811015620002a15762000285600782600481106200026c577f4e487b7100000000000000000000000000000000000000000000000000000000600052603260045260246000fd5b0154600b546200052660201b62001ce51790919060201c565b600b819055508080620002989062000f3b565b91505062000223565b5081600c60006101000a81548173ffffffffffffffffffffffffffffffffffffffff021916908373ffffffffffffffffffffffffffffffffffffffff16021790555033600d60006101000a81548173ffffffffffffffffffffffffffffffffffffffff021916908373ffffffffffffffffffffffffffffffffffffffff16021790555082600e90805190602001906200033c929190620006c6565b5060005b83518110156200041d57600060106000600e84815481106200038b577f4e487b7100000000000000000000000000000000000000000000000000000000600052603260045260246000fd5b9060005260206000200160009054906101000a900473ffffffffffffffffffffffffffffffffffffffff1673ffffffffffffffffffffffffffffffffffffffff1673ffffffffffffffffffffffffffffffffffffffff16815260200190815260200160002060006101000a81548160ff0219169083151502179055508080620004149062000f3b565b91505062000340565b508060006002811062000459577f4e487b7100000000000000000000000000000000000000000000000000000000600052603260045260246000fd5b6020020151426200046b919062000e34565b60168190555080600160028110620004ac577f4e487b7100000000000000000000000000000000000000000000000000000000600052603260045260246000fd5b602002015142620004be919062000e34565b6017819055506000601560006101000a81548160ff0219169083600681111562000511577f4e487b7100000000000000000000000000000000000000000000000000000000600052602160045260246000fd5b0217905550505050505050505050506200104a565b600080828462000537919062000e34565b9050838110156200057f576040517f08c379a0000000000000000000000000000000000000000000000000000000008152600401620005769062000cea565b60405180910390fd5b8091505092915050565b828054620005979062000f05565b90600052602060002090601f016020900481019282620005bb576000855562000607565b82601f10620005d657805160ff191683800117855562000607565b8280016001018555821562000607579182015b8281111562000606578251825591602001919060010190620005e9565b5b50905062000616919062000755565b5090565b8280548282559060005260206000209081019282156200066e579160200282015b828111156200066d5782518290805190602001906200065c92919062000589565b50916020019190600101906200063b565b5b5090506200067d919062000774565b5090565b8260048101928215620006b3579160200282015b82811115620006b257825182559160200191906001019062000695565b5b509050620006c2919062000755565b5090565b82805482825590600052602060002090810192821562000742579160200282015b82811115620007415782518260006101000a81548173ffffffffffffffffffffffffffffffffffffffff021916908373ffffffffffffffffffffffffffffffffffffffff16021790555091602001919060010190620006e7565b5b50905062000751919062000755565b5090565b5b808211156200077057600081600090555060010162000756565b5090565b5b808211156200079857600081816200078e91906200079c565b5060010162000775565b5090565b508054620007aa9062000f05565b6000825580601f10620007be5750620007df565b601f016020900490600052602060002090810190620007de919062000755565b5b50565b6000620007f9620007f38462000d40565b62000d0c565b905080838252602082019050828560208602820111156200081957600080fd5b60005b858110156200084d5781620008328882620009d9565b8452602084019350602083019250506001810190506200081c565b5050509392505050565b60006200086e620008688462000d6f565b62000d0c565b9050808382526020820190508260005b85811015620008b2578151850162000897888262000a9e565b8452602084019350602083019250506001810190506200087e565b5050509392505050565b6000620008d3620008cd8462000d9e565b62000d0c565b90508082856020860282011115620008ea57600080fd5b60005b858110156200091e578162000903888262000acb565b845260208401935060208301925050600181019050620008ed565b5050509392505050565b60006200093f620009398462000dc7565b62000d0c565b905080828560208602820111156200095657600080fd5b60005b858110156200098a57816200096f888262000acb565b84526020840193506020830192505060018101905062000959565b5050509392505050565b6000620009ab620009a58462000df0565b62000d0c565b905082815260208101848484011115620009c457600080fd5b620009d184828562000ecf565b509392505050565b600081519050620009ea8162001016565b92915050565b600082601f83011262000a0257600080fd5b815162000a14848260208601620007e2565b91505092915050565b600082601f83011262000a2f57600080fd5b815162000a4184826020860162000857565b91505092915050565b600082601f83011262000a5c57600080fd5b600262000a6b848285620008bc565b91505092915050565b600082601f83011262000a8657600080fd5b600462000a9584828562000928565b91505092915050565b600082601f83011262000ab057600080fd5b815162000ac284826020860162000994565b91505092915050565b60008151905062000adc8162001030565b92915050565b6000806000806000806000806000806101e08b8d03121562000b0357600080fd5b600062000b138d828e01620009d9565b9a5050602062000b268d828e0162000acb565b99505060408b015167ffffffffffffffff81111562000b4457600080fd5b62000b528d828e0162000a9e565b98505060608b015167ffffffffffffffff81111562000b7057600080fd5b62000b7e8d828e0162000a1d565b975050608062000b918d828e0162000a4a565b96505060c062000ba48d828e0162000acb565b95505060e062000bb78d828e0162000a74565b9450506101608b015167ffffffffffffffff81111562000bd657600080fd5b62000be48d828e01620009f0565b93505061018062000bf88d828e01620009d9565b9250506101a062000c0c8d828e0162000a4a565b9150509295989b9194979a5092959850565b600062000c2d601c8362000e23565b91507f496e76616c69642065787069726174696f6e2073657474696e67732e000000006000830152602082019050919050565b600062000c6f60258362000e23565b91507f536166654d617468466f7255696e743235363a206164646974696f6e206f766560008301527f72666c6f770000000000000000000000000000000000000000000000000000006020830152604082019050919050565b6000602082019050818103600083015262000ce38162000c1e565b9050919050565b6000602082019050818103600083015262000d058162000c60565b9050919050565b6000604051905081810181811067ffffffffffffffff8211171562000d365762000d3562000fe7565b5b8060405250919050565b600067ffffffffffffffff82111562000d5e5762000d5d62000fe7565b5b602082029050602081019050919050565b600067ffffffffffffffff82111562000d8d5762000d8c62000fe7565b5b602082029050602081019050919050565b600067ffffffffffffffff82111562000dbc5762000dbb62000fe7565b5b602082029050919050565b600067ffffffffffffffff82111562000de55762000de462000fe7565b5b602082029050919050565b600067ffffffffffffffff82111562000e0e5762000e0d62000fe7565b5b601f19601f8301169050602081019050919050565b600082825260208201905092915050565b600062000e418262000ec5565b915062000e4e8362000ec5565b9250827fffffffffffffffffffffffffffffffffffffffffffffffffffffffffffffffff0382111562000e865762000e8562000f89565b5b828201905092915050565b600062000e9e8262000ea5565b9050919050565b600073ffffffffffffffffffffffffffffffffffffffff82169050919050565b6000819050919050565b60005b8381101562000eef57808201518184015260208101905062000ed2565b8381111562000eff576000848401525b50505050565b6000600282049050600182168062000f1e57607f821691505b6020821081141562000f355762000f3462000fb8565b5b50919050565b600062000f488262000ec5565b91507fffffffffffffffffffffffffffffffffffffffffffffffffffffffffffffffff82141562000f7e5762000f7d62000f89565b5b600182019050919050565b7f4e487b7100000000000000000000000000000000000000000000000000000000600052601160045260246000fd5b7f4e487b7100000000000000000000000000000000000000000000000000000000600052602260045260246000fd5b7f4e487b7100000000000000000000000000000000000000000000000000000000600052604160045260246000fd5b620010218162000e91565b81146200102d57600080fd5b50565b6200103b8162000ec5565b81146200104757600080fd5b50565b61355d806200105a6000396000f3fe608060405234801561001057600080fd5b50600436106101da5760003560e01c806367f1661c11610104578063b6a53112116100a2578063c9cd30a011610071578063c9cd30a0146104e0578063d0e30db0146104fe578063d3a6433f14610508578063fabd30b714610512576101da565b8063b6a5311214610456578063b6ef730a14610486578063bcce8475146104a4578063c6c15a37146104c2576101da565b806385b4816d116100de57806385b4816d146103f45780639107652814610412578063ab6925991461042e578063b28aea561461044c576101da565b806367f1661c146103ad5780636ebe7db1146103cc578063780568de146103ea576101da565b8063205db2c11161017c5780634af936eb1161014b5780634af936eb146103255780635592ab3e14610341578063595bcc351461035f57806360384f8a1461038f576101da565b8063205db2c11461029d5780633b43ede0146102bb57806341065406146102d7578063420d676d14610307576101da565b806313cc1e6f116101b857806313cc1e6f14610239578063169d87901461025757806319d541d9146102615780631f645aa11461027f576101da565b8063020b6582146101df5780630a05ad44146101fd5780630f42e1401461021b575b600080fd5b6101e7610542565b6040516101f49190612f9c565b60405180910390f35b610205610548565b6040516102129190612d1f565b60405180910390f35b61022361055b565b6040516102309190612d9a565b60405180910390f35b6102416105e9565b60405161024e9190612c6d565b60405180910390f35b61025f61060f565b005b6102696107cf565b6040516102769190612f9c565b60405180910390f35b6102876107d5565b6040516102949190612f9c565b60405180910390f35b6102a56107db565b6040516102b29190612f9c565b60405180910390f35b6102d560048036038101906102d0919061242a565b6107e1565b005b6102f160048036038101906102ec9190612401565b610a26565b6040516102fe9190612d1f565b60405180910390f35b61030f610a46565b60405161031c9190612d1f565b60405180910390f35b61033f600480360381019061033a91906124e8565b610a59565b005b610349610e05565b6040516103569190612c6d565b60405180910390f35b61037960048036038101906103749190612496565b610e2b565b6040516103869190612d9a565b60405180910390f35b610397610ed7565b6040516103a49190612d7f565b60405180910390f35b6103b5610eea565b6040516103c3929190612ce8565b60405180910390f35b6103d46111aa565b6040516103e19190612f9c565b60405180910390f35b6103f26111b0565b005b6103fc611392565b6040516104099190612d1f565b60405180910390f35b61042c60048036038101906104279190612496565b6113a5565b005b610436611498565b6040516104439190612f9c565b60405180910390f35b61045461149e565b005b610470600480360381019061046b9190612496565b611726565b60405161047d9190612f9c565b60405180910390f35b61048e611741565b60405161049b9190612f9c565b60405180910390f35b6104ac611747565b6040516104b99190612f9c565b60405180910390f35b6104ca61174d565b6040516104d79190612c6d565b60405180910390f35b6104e8611771565b6040516104f59190612f9c565b60405180910390f35b610506611822565b005b610510611a34565b005b61052c60048036038101906105279190612496565b611ca6565b6040516105399190612c6d565b60405180910390f35b60175481565b601360009054906101000a900460ff1681565b6002805461056890613329565b80601f016020809104026020016040519081016040528092919081815260200182805461059490613329565b80156105e15780601f106105b6576101008083540402835291602001916105e1565b820191906000526020600020905b8154815290600101906020018083116105c457829003601f168201915b505050505081565b600c60009054906101000a900473ffffffffffffffffffffffffffffffffffffffff1681565b600d60009054906101000a900473ffffffffffffffffffffffffffffffffffffffff1673ffffffffffffffffffffffffffffffffffffffff163373ffffffffffffffffffffffffffffffffffffffff161461069f576040517f08c379a000000000000000000000000000000000000000000000000000000000815260040161069690612e5c565b60405180910390fd5b600160068111156106d9577f4e487b7100000000000000000000000000000000000000000000000000000000600052602160045260246000fd5b601560009054906101000a900460ff166006811115610721577f4e487b7100000000000000000000000000000000000000000000000000000000600052602160045260246000fd5b14610761576040517f08c379a000000000000000000000000000000000000000000000000000000000815260040161075890612efc565b60405180910390fd5b6001600f60006101000a81548160ff0219169083151502179055506002601560006101000a81548160ff021916908360068111156107c8577f4e487b7100000000000000000000000000000000000000000000000000000000600052602160045260246000fd5b0217905550565b60055481565b60115481565b60065481565b600d60009054906101000a900473ffffffffffffffffffffffffffffffffffffffff1673ffffffffffffffffffffffffffffffffffffffff163373ffffffffffffffffffffffffffffffffffffffff1614610871576040517f08c379a000000000000000000000000000000000000000000000000000000000815260040161086890612e5c565b60405180910390fd5b600360068111156108ab577f4e487b7100000000000000000000000000000000000000000000000000000000600052602160045260246000fd5b601560009054906101000a900460ff1660068111156108f3577f4e487b7100000000000000000000000000000000000000000000000000000000600052602160045260246000fd5b14610933576040517f08c379a000000000000000000000000000000000000000000000000000000000815260040161092a90612dbc565b60405180910390fd5b816018908051906020019061094992919061207e565b5080601990805190602001906109609291906120de565b506004600681111561099b577f4e487b7100000000000000000000000000000000000000000000000000000000600052602160045260246000fd5b601560009054906101000a900460ff1660068111156109e3577f4e487b7100000000000000000000000000000000000000000000000000000000600052602160045260246000fd5b50507f87f86a96327a5bae9c97b0c106855bcc44283bb61d3d8491d8eba923ecd5477a6001543342604051610a1a93929190612fb7565b60405180910390a15050565b60106020528060005260406000206000915054906101000a900460ff1681565b600f60009054906101000a900460ff1681565b601754421115610a9e576040517f08c379a0000000000000000000000000000000000000000000000000000000008152600401610a9590612f3c565b60405180910390fd5b60165442101580610abb5750600f60009054906101000a900460ff165b610afa576040517f08c379a0000000000000000000000000000000000000000000000000000000008152600401610af190612e9c565b60405180910390fd5b6002601560006101000a81548160ff02191690836006811115610b46577f4e487b7100000000000000000000000000000000000000000000000000000000600052602160045260246000fd5b02179055503373ffffffffffffffffffffffffffffffffffffffff16600e8481548110610b9c577f4e487b7100000000000000000000000000000000000000000000000000000000600052603260045260246000fd5b9060005260206000200160009054906101000a900473ffffffffffffffffffffffffffffffffffffffff1673ffffffffffffffffffffffffffffffffffffffff1614610c1d576040517f08c379a0000000000000000000000000000000000000000000000000000000008152600401610c1490612f5c565b60405180910390fd5b601060003373ffffffffffffffffffffffffffffffffffffffff1673ffffffffffffffffffffffffffffffffffffffff16815260200190815260200160002060009054906101000a900460ff1615610caa576040517f08c379a0000000000000000000000000000000000000000000000000000000008152600401610ca190612e1c565b60405180910390fd5b610cb48282611d43565b610cbd57600080fd5b60008054906101000a900473ffffffffffffffffffffffffffffffffffffffff1673ffffffffffffffffffffffffffffffffffffffff1663a9059cbb33846040518363ffffffff1660e01b8152600401610d18929190612cbf565b600060405180830381600087803b158015610d3257600080fd5b505af1158015610d46573d6000803e3d6000fd5b505050507fabd2ea63ac9d7b0a0b41b31e1fc0d77f54983c676c7478769f21422a719ac9ba6001543384604051610d7f93929190612fb7565b60405180910390a160116000815480929190610d9a9061335b565b9190505550600e805490506011541415610e00576003601560006101000a81548160ff02191690836006811115610dfa577f4e487b7100000000000000000000000000000000000000000000000000000000600052602160045260246000fd5b02179055505b505050565b600d60009054906101000a900473ffffffffffffffffffffffffffffffffffffffff1681565b60038181548110610e3b57600080fd5b906000526020600020016000915090508054610e5690613329565b80601f0160208091040260200160405190810160405280929190818152602001828054610e8290613329565b8015610ecf5780601f10610ea457610100808354040283529160200191610ecf565b820191906000526020600020905b815481529060010190602001808311610eb257829003601f168201915b505050505081565b601560009054906101000a900460ff1681565b606080600c60009054906101000a900473ffffffffffffffffffffffffffffffffffffffff1673ffffffffffffffffffffffffffffffffffffffff163373ffffffffffffffffffffffffffffffffffffffff1614610f7d576040517f08c379a0000000000000000000000000000000000000000000000000000000008152600401610f7490612edc565b60405180910390fd5b60046006811115610fb7577f4e487b7100000000000000000000000000000000000000000000000000000000600052602160045260246000fd5b601560009054906101000a900460ff166006811115610fff577f4e487b7100000000000000000000000000000000000000000000000000000000600052602160045260246000fd5b1461103f576040517f08c379a000000000000000000000000000000000000000000000000000000000815260040161103690612dfc565b60405180910390fd5b6018601981805480602002602001604051908101604052809291908181526020016000905b8282101561111057838290600052602060002001805461108390613329565b80601f01602080910402602001604051908101604052809291908181526020018280546110af90613329565b80156110fc5780601f106110d1576101008083540402835291602001916110fc565b820191906000526020600020905b8154815290600101906020018083116110df57829003601f168201915b505050505081526020019060010190611064565b50505050915080805461112290613329565b80601f016020809104026020016040519081016040528092919081815260200182805461114e90613329565b801561119b5780601f106111705761010080835404028352916020019161119b565b820191906000526020600020905b81548152906001019060200180831161117e57829003601f168201915b50505050509050915091509091565b60165481565b600c60009054906101000a900473ffffffffffffffffffffffffffffffffffffffff1673ffffffffffffffffffffffffffffffffffffffff163373ffffffffffffffffffffffffffffffffffffffff1614611240576040517f08c379a000000000000000000000000000000000000000000000000000000000815260040161123790612edc565b60405180910390fd5b6004600681111561127a577f4e487b7100000000000000000000000000000000000000000000000000000000600052602160045260246000fd5b601560009054906101000a900460ff1660068111156112c2577f4e487b7100000000000000000000000000000000000000000000000000000000600052602160045260246000fd5b14611302576040517f08c379a00000000000000000000000000000000000000000000000000000000081526004016112f990612dfc565b60405180910390fd5b6005601560006101000a81548160ff0219169083600681111561134e577f4e487b7100000000000000000000000000000000000000000000000000000000600052602160045260246000fd5b02179055507f626d6657e62a385929300b655c1d42c381b4ff8bcaecdb7c505f8595715631e1600154334260405161138893929190612fb7565b60405180910390a1565b601a60009054906101000a900460ff1681565b600d60009054906101000a900473ffffffffffffffffffffffffffffffffffffffff1673ffffffffffffffffffffffffffffffffffffffff163373ffffffffffffffffffffffffffffffffffffffff1614611435576040517f08c379a000000000000000000000000000000000000000000000000000000000815260040161142c90612e5c565b60405180910390fd5b60175442111561147a576040517f08c379a000000000000000000000000000000000000000000000000000000000815260040161147190612f3c565b60405180910390fd5b61148f81601754611ce590919063ffffffff16565b60178190555050565b60045481565b600d60009054906101000a900473ffffffffffffffffffffffffffffffffffffffff1673ffffffffffffffffffffffffffffffffffffffff163373ffffffffffffffffffffffffffffffffffffffff161461152e576040517f08c379a000000000000000000000000000000000000000000000000000000000815260040161152590612e5c565b60405180910390fd5b60056006811115611568577f4e487b7100000000000000000000000000000000000000000000000000000000600052602160045260246000fd5b601560009054906101000a900460ff1660068111156115b0577f4e487b7100000000000000000000000000000000000000000000000000000000600052602160045260246000fd5b146115f0576040517f08c379a00000000000000000000000000000000000000000000000000000000081526004016115e790612f7c565b60405180910390fd5b60008054906101000a900473ffffffffffffffffffffffffffffffffffffffff1673ffffffffffffffffffffffffffffffffffffffff1663a9059cbb336014546040518363ffffffff1660e01b815260040161164d929190612cbf565b600060405180830381600087803b15801561166757600080fd5b505af115801561167b573d6000803e3d6000fd5b505050506006601560006101000a81548160ff021916908360068111156116cb577f4e487b7100000000000000000000000000000000000000000000000000000000600052602160045260246000fd5b02179055507fbec35b1b26a767ec29c95c6536c70b1c2561ead28fe47006f862ee96b31b1bd4600154334260405161170593929190612fb7565b60405180910390a13373ffffffffffffffffffffffffffffffffffffffff16ff5b6007816004811061173657600080fd5b016000915090505481565b60015481565b60145481565b60008054906101000a900473ffffffffffffffffffffffffffffffffffffffff1681565b60008060009054906101000a900473ffffffffffffffffffffffffffffffffffffffff1673ffffffffffffffffffffffffffffffffffffffff166370a08231306040518263ffffffff1660e01b81526004016117cd9190612c6d565b60206040518083038186803b1580156117e557600080fd5b505afa1580156117f9573d6000803e3d6000fd5b505050506040513d601f19601f8201168201806040525081019061181d91906124bf565b905090565b600d60009054906101000a900473ffffffffffffffffffffffffffffffffffffffff1673ffffffffffffffffffffffffffffffffffffffff163373ffffffffffffffffffffffffffffffffffffffff16146118b2576040517f08c379a00000000000000000000000000000000000000000000000000000000081526004016118a990612e5c565b60405180910390fd5b601360009054906101000a900460ff16611901576040517f08c379a00000000000000000000000000000000000000000000000000000000081526004016118f890612e7c565b60405180910390fd5b61190b6003611dde565b60148190555060008054906101000a900473ffffffffffffffffffffffffffffffffffffffff1673ffffffffffffffffffffffffffffffffffffffff166323b872dd33306014546040518463ffffffff1660e01b815260040161197093929190612c88565b600060405180830381600087803b15801561198a57600080fd5b505af115801561199e573d6000803e3d6000fd5b505050506001601560006101000a81548160ff021916908360068111156119ee577f4e487b7100000000000000000000000000000000000000000000000000000000600052602160045260246000fd5b02179055507feaa18152488ce5959073c9c79c88ca90b3d96c00de1f118cfaad664c3dab06b960015433601454604051611a2a93929190612fb7565b60405180910390a1565b600c60009054906101000a900473ffffffffffffffffffffffffffffffffffffffff1673ffffffffffffffffffffffffffffffffffffffff163373ffffffffffffffffffffffffffffffffffffffff1614611ac4576040517f08c379a0000000000000000000000000000000000000000000000000000000008152600401611abb90612edc565b60405180910390fd5b60008054906101000a900473ffffffffffffffffffffffffffffffffffffffff1673ffffffffffffffffffffffffffffffffffffffff166323b872dd33306006546040518463ffffffff1660e01b8152600401611b2393929190612c88565b600060405180830381600087803b158015611b3d57600080fd5b505af1158015611b51573d6000803e3d6000fd5b505050506001601360006101000a81548160ff0219169083151502179055507f962730d72aea6174809fe0a3f2fe94b8c5c4bed57984678f63a3ffeeb8009edd60015433600654604051611ba793929190612fb7565b60405180910390a16000611bbb6002611dde565b905060008054906101000a900473ffffffffffffffffffffffffffffffffffffffff1673ffffffffffffffffffffffffffffffffffffffff1663a9059cbb6000836040518363ffffffff1660e01b8152600401611c19929190612cbf565b600060405180830381600087803b158015611c3357600080fd5b505af1158015611c47573d6000803e3d6000fd5b505050506001601a60006101000a81548160ff0219169083151502179055507f6ce5ab9f3565e9d6a54671b132c57e581b716a797ec5fd8b1fdfef95d96c25db6001544283604051611c9b93929190612fee565b60405180910390a150565b600e8181548110611cb657600080fd5b906000526020600020016000915054906101000a900473ffffffffffffffffffffffffffffffffffffffff1681565b6000808284611cf4919061315e565b905083811015611d39576040517f08c379a0000000000000000000000000000000000000000000000000000000008152600401611d3090612f1c565b60405180910390fd5b8091505092915050565b600080611d79308533604051602001611d5e93929190612c0a565b60405160208183030381529060405280519060200120611ec9565b9050600d60009054906101000a900473ffffffffffffffffffffffffffffffffffffffff1673ffffffffffffffffffffffffffffffffffffffff16611dbe8285611ef9565b73ffffffffffffffffffffffffffffffffffffffff161491505092915050565b6000600482108015611df1575060008210155b611e30576040517f08c379a0000000000000000000000000000000000000000000000000000000008152600401611e2790612ebc565b60405180910390fd5b6000611e96600b54611e8860125460078760048110611e78577f4e487b7100000000000000000000000000000000000000000000000000000000600052603260045260246000fd5b0154611f6890919063ffffffff16565b611fee90919063ffffffff16565b9050611ec1601254611eb360065484611f6890919063ffffffff16565b611fee90919063ffffffff16565b915050919050565b600081604051602001611edc9190612c47565b604051602081830303815290604052805190602001209050919050565b600080600080611f088561204c565b92509250925060018684848460405160008152602001604052604051611f319493929190612d3a565b6020604051602081039080840390855afa158015611f53573d6000803e3d6000fd5b50505060206040510351935050505092915050565b600080831480611f785750600082145b15611f865760009050611fe8565b60008284611f9491906131e5565b9050828482611fa391906131b4565b14611fe3576040517f08c379a0000000000000000000000000000000000000000000000000000000008152600401611fda90612e3c565b60405180910390fd5b809150505b92915050565b6000808211612032576040517f08c379a000000000000000000000000000000000000000000000000000000000815260040161202990612ddc565b60405180910390fd5b6000828461204091906131b4565b90508091505092915050565b6000806000604184511461205f57600080fd5b6020840151915060408401519050606084015160001a92509193909250565b8280548282559060005260206000209081019282156120cd579160200282015b828111156120cc5782518290805190602001906120bc929190612164565b509160200191906001019061209e565b5b5090506120da91906121ea565b5090565b8280546120ea90613329565b90600052602060002090601f01602090048101928261210c5760008555612153565b82601f1061212557805160ff1916838001178555612153565b82800160010185558215612153579182015b82811115612152578251825591602001919060010190612137565b5b509050612160919061220e565b5090565b82805461217090613329565b90600052602060002090601f01602090048101928261219257600085556121d9565b82601f106121ab57805160ff19168380011785556121d9565b828001600101855582156121d9579182015b828111156121d85782518255916020019190600101906121bd565b5b5090506121e6919061220e565b5090565b5b8082111561220a5760008181612201919061222b565b506001016121eb565b5090565b5b8082111561222757600081600090555060010161220f565b5090565b50805461223790613329565b6000825580601f106122495750612268565b601f016020900490600052602060002090810190612267919061220e565b5b50565b600061227e61227984613056565b613025565b9050808382526020820190508260005b858110156122be57813585016122a48882612383565b84526020840193506020830192505060018101905061228e565b5050509392505050565b60006122db6122d684613082565b613025565b9050828152602081018484840111156122f357600080fd5b6122fe8482856132e7565b509392505050565b6000612319612314846130b2565b613025565b90508281526020810184848401111561233157600080fd5b61233c8482856132e7565b509392505050565b600081359050612353816134f9565b92915050565b600082601f83011261236a57600080fd5b813561237a84826020860161226b565b91505092915050565b600082601f83011261239457600080fd5b81356123a48482602086016122c8565b91505092915050565b600082601f8301126123be57600080fd5b81356123ce848260208601612306565b91505092915050565b6000813590506123e681613510565b92915050565b6000815190506123fb81613510565b92915050565b60006020828403121561241357600080fd5b600061242184828501612344565b91505092915050565b6000806040838503121561243d57600080fd5b600083013567ffffffffffffffff81111561245757600080fd5b61246385828601612359565b925050602083013567ffffffffffffffff81111561248057600080fd5b61248c858286016123ad565b9150509250929050565b6000602082840312156124a857600080fd5b60006124b6848285016123d7565b91505092915050565b6000602082840312156124d157600080fd5b60006124df848285016123ec565b91505092915050565b6000806000606084860312156124fd57600080fd5b600061250b868287016123d7565b935050602061251c868287016123d7565b925050604084013567ffffffffffffffff81111561253957600080fd5b61254586828701612383565b9150509250925092565b600061255b8383612633565b905092915050565b61256c8161323f565b82525050565b61258361257e8261323f565b6133a4565b82525050565b6000612594826130f2565b61259e8185613120565b9350836020820285016125b0856130e2565b8060005b858110156125ec57848403895281516125cd858261254f565b94506125d883613113565b925060208a019950506001810190506125b4565b50829750879550505050505092915050565b61260781613251565b82525050565b6126168161325d565b82525050565b61262d6126288261325d565b6133b6565b82525050565b600061263e826130fd565b6126488185613131565b93506126588185602086016132f6565b612661816134c7565b840191505092915050565b61267d612678826132b1565b6133a4565b82525050565b61268c816132d5565b82525050565b600061269d82613108565b6126a78185613142565b93506126b78185602086016132f6565b6126c0816134c7565b840191505092915050565b60006126d8601f83613142565b91507f5761697420616c6c206f6620706172746963697061746520636f6e76657274006000830152602082019050919050565b6000612718601c83613153565b91507f19457468657265756d205369676e6564204d6573736167653a0a3332000000006000830152601c82019050919050565b6000612758602483613142565b91507f536166654d617468466f7255696e743235363a206469766973696f6e2062792060008301527f7a65726f000000000000000000000000000000000000000000000000000000006020830152604082019050919050565b60006127be601f83613142565b91507f5761697420706f6f6c206d616e616765722075706c6f616465642064617461006000830152602082019050919050565b60006127fe601a83613142565b91507f596f757220616c726561647920636f6e76657273696f6e65642e0000000000006000830152602082019050919050565b600061283e602b83613142565b91507f536166654d617468466f7255696e743235363a206d756c7469706c696361746960008301527f6f6e206f766572666c6f770000000000000000000000000000000000000000006020830152604082019050919050565b60006128a4602983613142565b91507f4f6e6c7920706f6f6c206d616e616765722063616e2063616c6c20746869732060008301527f66756e6374696f6e2e00000000000000000000000000000000000000000000006020830152604082019050919050565b600061290a601783613142565b91507f4e65656420746f20706c6564676520562066697273742e0000000000000000006000830152602082019050919050565b600061294a602083613142565b91507f436f6e76657273696f6e20706572696f6420686173277420737461727465642e6000830152602082019050919050565b600061298a601983613142565b91507f496e76616c6964207265776172644b696e6420696e7075742e000000000000006000830152602082019050919050565b60006129ca602d83613142565b91507f4f6e6c7920736572766963652064656d616e6465722063616e2063616c6c207460008301527f6869732066756e6374696f6e2e000000000000000000000000000000000000006020830152604082019050919050565b6000612a30601a83613142565b91507f506c65646765206120726174696f206f6620562066697273742e0000000000006000830152602082019050919050565b6000612a70602583613142565b91507f536166654d617468466f7255696e743235363a206164646974696f6e206f766560008301527f72666c6f770000000000000000000000000000000000000000000000000000006020830152604082019050919050565b6000612ad6601983613142565b91507f436f6e76657273696f6e20706572696f6420697320656e642e000000000000006000830152602082019050919050565b6000612b16602c83613142565b91507f596f757220617265206e6f74207061727469636970617465206f7220696e766160008301527f6c696420696420696e70757400000000000000000000000000000000000000006020830152604082019050919050565b6000612b7c602683613142565b91507f57616974207365727665722064656d616e64657220636f6d6d6974206d6f646560008301527f6c206461746100000000000000000000000000000000000000000000000000006020830152604082019050919050565b612bde8161329a565b82525050565b612bf5612bf08261329a565b6133d2565b82525050565b612c04816132a4565b82525050565b6000612c16828661266c565b601482019150612c268285612be4565b602082019150612c368284612572565b601482019150819050949350505050565b6000612c528261270b565b9150612c5e828461261c565b60208201915081905092915050565b6000602082019050612c826000830184612563565b92915050565b6000606082019050612c9d6000830186612563565b612caa6020830185612563565b612cb76040830184612bd5565b949350505050565b6000604082019050612cd46000830185612563565b612ce16020830184612bd5565b9392505050565b60006040820190508181036000830152612d028185612589565b90508181036020830152612d168184612692565b90509392505050565b6000602082019050612d3460008301846125fe565b92915050565b6000608082019050612d4f600083018761260d565b612d5c6020830186612bfb565b612d69604083018561260d565b612d76606083018461260d565b95945050505050565b6000602082019050612d946000830184612683565b92915050565b60006020820190508181036000830152612db48184612692565b905092915050565b60006020820190508181036000830152612dd5816126cb565b9050919050565b60006020820190508181036000830152612df58161274b565b9050919050565b60006020820190508181036000830152612e15816127b1565b9050919050565b60006020820190508181036000830152612e35816127f1565b9050919050565b60006020820190508181036000830152612e5581612831565b9050919050565b60006020820190508181036000830152612e7581612897565b9050919050565b60006020820190508181036000830152612e95816128fd565b9050919050565b60006020820190508181036000830152612eb58161293d565b9050919050565b60006020820190508181036000830152612ed58161297d565b9050919050565b60006020820190508181036000830152612ef5816129bd565b9050919050565b60006020820190508181036000830152612f1581612a23565b9050919050565b60006020820190508181036000830152612f3581612a63565b9050919050565b60006020820190508181036000830152612f5581612ac9565b9050919050565b60006020820190508181036000830152612f7581612b09565b9050919050565b60006020820190508181036000830152612f9581612b6f565b9050919050565b6000602082019050612fb16000830184612bd5565b92915050565b6000606082019050612fcc6000830186612bd5565b612fd96020830185612563565b612fe66040830184612bd5565b949350505050565b60006060820190506130036000830186612bd5565b6130106020830185612bd5565b61301d6040830184612bd5565b949350505050565b6000604051905081810181811067ffffffffffffffff8211171561304c5761304b613498565b5b8060405250919050565b600067ffffffffffffffff82111561307157613070613498565b5b602082029050602081019050919050565b600067ffffffffffffffff82111561309d5761309c613498565b5b601f19601f8301169050602081019050919050565b600067ffffffffffffffff8211156130cd576130cc613498565b5b601f19601f8301169050602081019050919050565b6000819050602082019050919050565b600081519050919050565b600081519050919050565b600081519050919050565b6000602082019050919050565b600082825260208201905092915050565b600082825260208201905092915050565b600082825260208201905092915050565b600081905092915050565b60006131698261329a565b91506131748361329a565b9250827fffffffffffffffffffffffffffffffffffffffffffffffffffffffffffffffff038211156131a9576131a86133dc565b5b828201905092915050565b60006131bf8261329a565b91506131ca8361329a565b9250826131da576131d961340b565b5b828204905092915050565b60006131f08261329a565b91506131fb8361329a565b9250817fffffffffffffffffffffffffffffffffffffffffffffffffffffffffffffffff0483118215151615613234576132336133dc565b5b828202905092915050565b600061324a8261327a565b9050919050565b60008115159050919050565b6000819050919050565b6000819050613275826134e5565b919050565b600073ffffffffffffffffffffffffffffffffffffffff82169050919050565b6000819050919050565b600060ff82169050919050565b60006132bc826132c3565b9050919050565b60006132ce8261327a565b9050919050565b60006132e082613267565b9050919050565b82818337600083830152505050565b60005b838110156133145780820151818401526020810190506132f9565b83811115613323576000848401525b50505050565b6000600282049050600182168061334157607f821691505b6020821081141561335557613354613469565b5b50919050565b60006133668261329a565b91507fffffffffffffffffffffffffffffffffffffffffffffffffffffffffffffffff821415613399576133986133dc565b5b600182019050919050565b60006133af826133c0565b9050919050565b6000819050919050565b60006133cb826134d8565b9050919050565b6000819050919050565b7f4e487b7100000000000000000000000000000000000000000000000000000000600052601160045260246000fd5b7f4e487b7100000000000000000000000000000000000000000000000000000000600052601260045260246000fd5b7f4e487b7100000000000000000000000000000000000000000000000000000000600052602160045260246000fd5b7f4e487b7100000000000000000000000000000000000000000000000000000000600052602260045260246000fd5b7f4e487b7100000000000000000000000000000000000000000000000000000000600052604160045260246000fd5b6000601f19601f8301169050919050565b60008160601b9050919050565b600781106134f6576134f561343a565b5b50565b6135028161323f565b811461350d57600080fd5b50565b6135198161329a565b811461352457600080fd5b5056fea2646970667358221220cde231dce8c39e4cba7e5b8576fae45010b9c74be671be2d4efe11a11f789a0a64736f6c63430008000033",
  "immutableReferences": {},
  "source": "// SPDX-License-Identifier: GPL-3.0\npragma solidity >=0.7.6 <0.9.0;\n\nimport './SafeMath.sol';\nimport './FSCoin.sol';\n\ncontract FL_StateChannel {\n    \n    using SafeMath for uint;\n    \n    address public FSCoinAddr;\n    \n    // task\n    uint public taskID; \n    string public model_name; \n    string[] public super_paras; \n    uint public global_epoch; \n    uint public local_epoch; \n    uint public V;\n    uint[4] public proportion;\n    uint internal sum;\n    \n    // character\n    address public service_demander;\n    address public pool_manager;\n    address[] public participates;\n    \n    // training reward\n    bool public isConversion;\n    mapping(address => bool) public conversioned;\n    uint public conversioned_count;\n    uint precision = 10000;\n    \n    // deposit\n    bool public depositV_flag;\n    uint public deposit_value;\n    \n    // state channel over time\n    enum Channel_State {inited, deposited, openConversion, closeConversion, modelUploaded, modelCommitted, channelClosed}\n    Channel_State public channel_state;        \n    uint public expiration_start;\n    uint public expiration_end;\n    \n    // model\n    bytes[] internal model_src;\n    string internal file_format;\n    \n    // spvPoof\n    bool public destoried;\n    \n    event DepositV(uint taskID, address service_demander, uint amount);\n    event DestorySideReward(uint taskID, uint timestamp, uint amount);\n    event Deposit(uint taskID, address pool_manager, uint amount);\n    event Conversion(uint taskID, address participate, uint amount);\n    event UploadModel(uint taskID, address pool_manager, uint timestamp);\n    event CommitModel(uint taskID, address service_demander, uint timestamp);\n    event CloseChannel(uint taskID, address pool_manager, uint timestamp);\n    \n    modifier onlyManager{\n        require(msg.sender == pool_manager, \"Only pool manager can call this function.\");\n        _;\n    }\n    \n    modifier onlyDemander{\n        require(msg.sender == service_demander, \"Only service demander can call this function.\");\n        _;\n    }\n\n    constructor(\n        address _FSCoinAddr,\n        uint _taskID,\n        string memory _model_name,\n        string[] memory _super_paras, \n        uint[2] memory _epochs,\n        uint _v,\n        uint[4] memory _proportion, \n        address[] memory _participates, \n        address _service_demander, \n        uint[2] memory _expiration\n    ){\n        require(_expiration[0] < _expiration[1], \"Invalid expiration settings.\");\n        FSCoinAddr = _FSCoinAddr;\n        taskID = _taskID;\n        model_name = _model_name;\n        super_paras = _super_paras;\n        global_epoch = _epochs[0];\n        local_epoch = _epochs[1];\n        V = _v;\n        proportion = _proportion;\n        for (uint i=0; i<_proportion.length; i++){\n            sum = sum.add(proportion[i]);\n        }\n        service_demander = _service_demander;\n        pool_manager = msg.sender;\n        participates = _participates;\n        for (uint i=0; i<_participates.length; i++) {\n            conversioned[participates[i]] = false;\n        }\n        expiration_start = block.timestamp + _expiration[0];\n        expiration_end = block.timestamp + _expiration[1];\n        channel_state = Channel_State.inited;\n    }\n    \n    function depositV() public onlyDemander {\n        FSCoin(FSCoinAddr).transferFrom(msg.sender, address(this), V);\n        depositV_flag = true;\n        emit DepositV(taskID, msg.sender, V);\n        // destroy remaining SideReward FSCoin, because there are cross to side-blockchain.\n        uint side_reward = proportion_count(2);\n        FSCoin(FSCoinAddr).transfer(address(0), side_reward);\n        destoried = true;\n        emit DestorySideReward(taskID, block.timestamp, side_reward);\n    }\n    \n    function deposit() public onlyManager {\n        require(depositV_flag, \"Need to pledge V first.\");\n        deposit_value = proportion_count(3);\n        FSCoin(FSCoinAddr).transferFrom(msg.sender, address(this), deposit_value);\n        channel_state = Channel_State.deposited;\n        emit Deposit(taskID, msg.sender, deposit_value);\n    }\n    \n    function contractBal() public view returns(uint){\n        return FSCoin(FSCoinAddr).balanceOf(address(this));\n    }\n    \n    function proportion_count(uint rewardKind) internal view returns(uint) {\n        require(rewardKind < 4 && rewardKind >= 0, \"Invalid rewardKind input.\");\n        uint propo = proportion[rewardKind].mul(precision).div(sum);\n        return propo.mul(V).div(precision); \n    }\n    \n    function isValidSignature(uint256 amount, bytes memory signature) internal view returns(bool) {\n        bytes32 message = prefixed(keccak256(abi.encodePacked(this, amount, msg.sender)));\n        return recoverSigner(message, signature) == pool_manager;\n    }\n    \n    function prefixed(bytes32 hash) internal pure returns (bytes32) {\n        return keccak256(abi.encodePacked(\"\\x19Ethereum Signed Message:\\n32\", hash));\n    }\n\n    function recoverSigner(bytes32 message, bytes memory signature) internal pure returns (address) {\n        (uint8 v, bytes32 r, bytes32 s) = splitSignature(signature);\n        return ecrecover(message, v, r, s);\n    }\n\n    function splitSignature(bytes memory signature) internal pure returns (uint8 v, bytes32 r, bytes32 s) {\n        require(signature.length == 65);\n        assembly {\n            r := mload(add(signature, 32))\n            s := mload(add(signature, 64))\n            v := byte(0, mload(add(signature, 96)))\n        }\n        return (v, r, s);\n    }\n    \n    function openConversion() public onlyManager {\n        require(channel_state == Channel_State.deposited, \"Pledge a ratio of V first.\");\n        isConversion = true;\n        channel_state = Channel_State.openConversion;\n    }\n    \n    function extendConversionEnd(uint extendTime) public onlyManager {\n        require(block.timestamp <= expiration_end, \"Conversion period is end.\");\n        expiration_end = expiration_end.add(extendTime);\n    }\n    \n    function conversion(uint participate_id, uint amount, bytes memory signature) public {\n        require(block.timestamp <= expiration_end, \"Conversion period is end.\");\n        require(block.timestamp >= expiration_start || isConversion, \"Conversion period has't started.\");\n        channel_state = Channel_State.openConversion;\n        require(participates[participate_id] == msg.sender, \"Your are not participate or invalid id input\");\n        require(!conversioned[msg.sender], \"Your already conversioned.\");\n        require(isValidSignature(amount, signature));\n        FSCoin(FSCoinAddr).transfer(msg.sender, amount);\n        emit Conversion(taskID, msg.sender, amount);\n        conversioned_count ++;\n        if (conversioned_count == participates.length) {\n            channel_state = Channel_State.closeConversion;\n        }\n    }\n    \n    function uploadModel(bytes[] memory _model_src, string memory _file_format) public onlyManager {\n        require(channel_state == Channel_State.closeConversion, \"Wait all of participate convert\");\n        model_src = _model_src;\n        file_format = _file_format;\n        channel_state == Channel_State.modelUploaded;\n        emit UploadModel(taskID, msg.sender, block.timestamp);\n    }\n    \n    function getModelData() public view onlyDemander returns(bytes[] memory, string memory){\n        require(channel_state == Channel_State.modelUploaded, \"Wait pool manager uploaded data\");\n        return (model_src, file_format);\n    }\n    \n    function commitModel() public onlyDemander {\n        require(channel_state == Channel_State.modelUploaded, \"Wait pool manager uploaded data\");\n        channel_state = Channel_State.modelCommitted;\n        emit CommitModel(taskID, msg.sender, block.timestamp);\n    }\n    \n    function closeChannel() public onlyManager {\n        require(channel_state == Channel_State.modelCommitted, \"Wait server demander commit model data\");\n        FSCoin(FSCoinAddr).transfer(msg.sender, deposit_value);\n        channel_state = Channel_State.channelClosed;\n        emit CloseChannel(taskID, msg.sender, block.timestamp);\n        selfdestruct(payable(msg.sender));\n    } \n}",
  "sourcePath": "/Users/xwj/projects/blockchain_projects/FedSharing/fed_sharing/mainchain/trufflejs/contracts/FL_StateChannel.sol",
  "compiler": {
    "name": "solc",
    "version": "0.8.0+commit.c7dfd78e.Emscripten.clang"
  },
  "schemaVersion": "3.4.3",
  "updatedAt": "2021-10-21T05:51:17.355Z",
  "networkType": "ethereum",
  "devdoc": {
    "kind": "dev",
    "methods": {},
    "version": 1
  },
  "userdoc": {
    "kind": "user",
    "methods": {},
    "version": 1
  }
}