{
  "contractName": "FSCoin",
  "abi": [
    {
      "inputs": [
        {
          "internalType": "uint256",
          "name": "_totalSupply",
          "type": "uint256"
        }
      ],
      "stateMutability": "nonpayable",
      "type": "constructor"
    },
    {
      "anonymous": false,
      "inputs": [
        {
          "indexed": true,
          "internalType": "address",
          "name": "owner",
          "type": "address"
        },
        {
          "indexed": true,
          "internalType": "address",
          "name": "spender",
          "type": "address"
        },
        {
          "indexed": false,
          "internalType": "uint256",
          "name": "value",
          "type": "uint256"
        }
      ],
      "name": "Approval",
      "type": "event"
    },
    {
      "anonymous": false,
      "inputs": [
        {
          "indexed": true,
          "internalType": "address",
          "name": "from",
          "type": "address"
        },
        {
          "indexed": true,
          "internalType": "address",
          "name": "to",
          "type": "address"
        },
        {
          "indexed": false,
          "internalType": "uint256",
          "name": "value",
          "type": "uint256"
        }
      ],
      "name": "Transfer",
      "type": "event"
    },
    {
      "inputs": [],
      "name": "MAX_UINT",
      "outputs": [
        {
          "internalType": "uint256",
          "name": "",
          "type": "uint256"
        }
      ],
      "stateMutability": "view",
      "type": "function",
      "constant": true
    },
    {
      "inputs": [
        {
          "internalType": "address",
          "name": "",
          "type": "address"
        },
        {
          "internalType": "address",
          "name": "",
          "type": "address"
        }
      ],
      "name": "allowed",
      "outputs": [
        {
          "internalType": "uint256",
          "name": "",
          "type": "uint256"
        }
      ],
      "stateMutability": "view",
      "type": "function",
      "constant": true
    },
    {
      "inputs": [
        {
          "internalType": "address",
          "name": "",
          "type": "address"
        }
      ],
      "name": "balances",
      "outputs": [
        {
          "internalType": "uint256",
          "name": "",
          "type": "uint256"
        }
      ],
      "stateMutability": "view",
      "type": "function",
      "constant": true
    },
    {
      "inputs": [],
      "name": "owner",
      "outputs": [
        {
          "internalType": "address",
          "name": "",
          "type": "address"
        }
      ],
      "stateMutability": "view",
      "type": "function",
      "constant": true
    },
    {
      "inputs": [],
      "name": "totalSupply",
      "outputs": [
        {
          "internalType": "uint256",
          "name": "",
          "type": "uint256"
        }
      ],
      "stateMutability": "view",
      "type": "function",
      "constant": true
    },
    {
      "inputs": [
        {
          "internalType": "address",
          "name": "newOwner",
          "type": "address"
        }
      ],
      "name": "transferOwnership",
      "outputs": [],
      "stateMutability": "nonpayable",
      "type": "function"
    },
    {
      "inputs": [
        {
          "internalType": "address",
          "name": "_to",
          "type": "address"
        },
        {
          "internalType": "uint256",
          "name": "_value",
          "type": "uint256"
        }
      ],
      "name": "transfer",
      "outputs": [],
      "stateMutability": "nonpayable",
      "type": "function"
    },
    {
      "inputs": [
        {
          "internalType": "address",
          "name": "owner",
          "type": "address"
        }
      ],
      "name": "balanceOf",
      "outputs": [
        {
          "internalType": "uint256",
          "name": "",
          "type": "uint256"
        }
      ],
      "stateMutability": "view",
      "type": "function",
      "constant": true
    },
    {
      "inputs": [
        {
          "internalType": "address",
          "name": "_from",
          "type": "address"
        },
        {
          "internalType": "address",
          "name": "_to",
          "type": "address"
        },
        {
          "internalType": "uint256",
          "name": "_value",
          "type": "uint256"
        }
      ],
      "name": "transferFrom",
      "outputs": [],
      "stateMutability": "nonpayable",
      "type": "function"
    },
    {
      "inputs": [
        {
          "internalType": "address",
          "name": "_spender",
          "type": "address"
        },
        {
          "internalType": "uint256",
          "name": "_value",
          "type": "uint256"
        }
      ],
      "name": "approve",
      "outputs": [],
      "stateMutability": "nonpayable",
      "type": "function"
    },
    {
      "inputs": [
        {
          "internalType": "address",
          "name": "_owner",
          "type": "address"
        },
        {
          "internalType": "address",
          "name": "_spender",
          "type": "address"
        }
      ],
      "name": "allowance",
      "outputs": [
        {
          "internalType": "uint256",
          "name": "remaining",
          "type": "uint256"
        }
      ],
      "stateMutability": "view",
      "type": "function",
      "constant": true
    }
  ],
  "bytecode": "0x608060405234801561001057600080fd5b50604051620014a4380380620014a4833981810160405281019061003491906100fb565b336000806101000a81548173ffffffffffffffffffffffffffffffffffffffff021916908373ffffffffffffffffffffffffffffffffffffffff1602179055508060018190555080600260008060009054906101000a900473ffffffffffffffffffffffffffffffffffffffff1673ffffffffffffffffffffffffffffffffffffffff1673ffffffffffffffffffffffffffffffffffffffff1681526020019081526020016000208190555050610145565b6000815190506100f58161012e565b92915050565b60006020828403121561010d57600080fd5b600061011b848285016100e6565b91505092915050565b6000819050919050565b61013781610124565b811461014257600080fd5b50565b61134f80620001556000396000f3fe608060405234801561001057600080fd5b50600436106100a95760003560e01c806370a082311161007157806370a08231146101645780638da5cb5b14610194578063a9059cbb146101b2578063dd62ed3e146101ce578063e5b5019a146101fe578063f2fde38b1461021c576100a9565b8063095ea7b3146100ae57806318160ddd146100ca57806323b872dd146100e857806327e235e3146101045780635c65816514610134575b600080fd5b6100c860048036038101906100c39190610dd1565b610238565b005b6100d2610446565b6040516100df91906111ca565b60405180910390f35b61010260048036038101906100fd9190610d82565b61044c565b005b61011e60048036038101906101199190610d1d565b610774565b60405161012b91906111ca565b60405180910390f35b61014e60048036038101906101499190610d46565b61078c565b60405161015b91906111ca565b60405180910390f35b61017e60048036038101906101799190610d1d565b6107b1565b60405161018b91906111ca565b60405180910390f35b61019c6107fa565b6040516101a991906110cf565b60405180910390f35b6101cc60048036038101906101c79190610dd1565b61081e565b005b6101e860048036038101906101e39190610d46565b610a4a565b6040516101f591906111ca565b60405180910390f35b610206610ad1565b60405161021391906111ca565b60405180910390f35b61023660048036038101906102319190610d1d565b610af5565b005b604060048161024791906111f6565b6000369050101561028d576040517f08c379a00000000000000000000000000000000000000000000000000000000081526004016102849061114a565b60405180910390fd5b6000821415801561031b57506000600360003373ffffffffffffffffffffffffffffffffffffffff1673ffffffffffffffffffffffffffffffffffffffff16815260200190815260200160002060008573ffffffffffffffffffffffffffffffffffffffff1673ffffffffffffffffffffffffffffffffffffffff1681526020019081526020016000205414155b1561035b576040517f08c379a00000000000000000000000000000000000000000000000000000000081526004016103529061118a565b60405180910390fd5b81600360003373ffffffffffffffffffffffffffffffffffffffff1673ffffffffffffffffffffffffffffffffffffffff16815260200190815260200160002060008573ffffffffffffffffffffffffffffffffffffffff1673ffffffffffffffffffffffffffffffffffffffff168152602001908152602001600020819055508273ffffffffffffffffffffffffffffffffffffffff163373ffffffffffffffffffffffffffffffffffffffff167f8c5be1e5ebec7d5bd14f71427d1e84f3dd0314c0f7b2291e5b200ac8c7c3b9258460405161043991906111ca565b60405180910390a3505050565b60015481565b604060048161045b91906111f6565b600036905010156104a1576040517f08c379a00000000000000000000000000000000000000000000000000000000081526004016104989061114a565b60405180910390fd5b6000600360008673ffffffffffffffffffffffffffffffffffffffff1673ffffffffffffffffffffffffffffffffffffffff16815260200190815260200160002060003373ffffffffffffffffffffffffffffffffffffffff1673ffffffffffffffffffffffffffffffffffffffff1681526020019081526020016000205490507fffffffffffffffffffffffffffffffffffffffffffffffffffffffffffffffff8110156105de5761055d8382610c3690919063ffffffff16565b600360008773ffffffffffffffffffffffffffffffffffffffff1673ffffffffffffffffffffffffffffffffffffffff16815260200190815260200160002060003373ffffffffffffffffffffffffffffffffffffffff1673ffffffffffffffffffffffffffffffffffffffff168152602001908152602001600020819055505b61063083600260008873ffffffffffffffffffffffffffffffffffffffff1673ffffffffffffffffffffffffffffffffffffffff16815260200190815260200160002054610c3690919063ffffffff16565b600260008773ffffffffffffffffffffffffffffffffffffffff1673ffffffffffffffffffffffffffffffffffffffff168152602001908152602001600020819055506106c583600260008773ffffffffffffffffffffffffffffffffffffffff1673ffffffffffffffffffffffffffffffffffffffff16815260200190815260200160002054610c9590919063ffffffff16565b600260008673ffffffffffffffffffffffffffffffffffffffff1673ffffffffffffffffffffffffffffffffffffffff168152602001908152602001600020819055508373ffffffffffffffffffffffffffffffffffffffff168573ffffffffffffffffffffffffffffffffffffffff167fddf252ad1be2c89b69c2b068fc378daa952ba7f163c4a11628f55a4df523b3ef8560405161076591906111ca565b60405180910390a35050505050565b60026020528060005260406000206000915090505481565b6003602052816000526040600020602052806000526040600020600091509150505481565b6000600260008373ffffffffffffffffffffffffffffffffffffffff1673ffffffffffffffffffffffffffffffffffffffff168152602001908152602001600020549050919050565b60008054906101000a900473ffffffffffffffffffffffffffffffffffffffff1681565b604060048161082d91906111f6565b60003690501015610873576040517f08c379a000000000000000000000000000000000000000000000000000000000815260040161086a9061114a565b60405180910390fd5b600082116108b6576040517f08c379a00000000000000000000000000000000000000000000000000000000081526004016108ad9061110a565b60405180910390fd5b61090882600260003373ffffffffffffffffffffffffffffffffffffffff1673ffffffffffffffffffffffffffffffffffffffff16815260200190815260200160002054610c3690919063ffffffff16565b600260003373ffffffffffffffffffffffffffffffffffffffff1673ffffffffffffffffffffffffffffffffffffffff1681526020019081526020016000208190555061099d82600260008673ffffffffffffffffffffffffffffffffffffffff1673ffffffffffffffffffffffffffffffffffffffff16815260200190815260200160002054610c9590919063ffffffff16565b600260008573ffffffffffffffffffffffffffffffffffffffff1673ffffffffffffffffffffffffffffffffffffffff168152602001908152602001600020819055508273ffffffffffffffffffffffffffffffffffffffff163373ffffffffffffffffffffffffffffffffffffffff167fddf252ad1be2c89b69c2b068fc378daa952ba7f163c4a11628f55a4df523b3ef84604051610a3d91906111ca565b60405180910390a3505050565b6000600360008473ffffffffffffffffffffffffffffffffffffffff1673ffffffffffffffffffffffffffffffffffffffff16815260200190815260200160002060008373ffffffffffffffffffffffffffffffffffffffff1673ffffffffffffffffffffffffffffffffffffffff16815260200190815260200160002054905092915050565b7fffffffffffffffffffffffffffffffffffffffffffffffffffffffffffffffff81565b60008054906101000a900473ffffffffffffffffffffffffffffffffffffffff1673ffffffffffffffffffffffffffffffffffffffff163373ffffffffffffffffffffffffffffffffffffffff1614610b83576040517f08c379a0000000000000000000000000000000000000000000000000000000008152600401610b7a906110ea565b60405180910390fd5b600073ffffffffffffffffffffffffffffffffffffffff168173ffffffffffffffffffffffffffffffffffffffff161415610bf3576040517f08c379a0000000000000000000000000000000000000000000000000000000008152600401610bea906111aa565b60405180910390fd5b806000806101000a81548173ffffffffffffffffffffffffffffffffffffffff021916908373ffffffffffffffffffffffffffffffffffffffff16021790555050565b600082821115610c7b576040517f08c379a0000000000000000000000000000000000000000000000000000000008152600401610c729061112a565b60405180910390fd5b60008284610c89919061124c565b90508091505092915050565b6000808284610ca491906111f6565b905083811015610ce9576040517f08c379a0000000000000000000000000000000000000000000000000000000008152600401610ce09061116a565b60405180910390fd5b8091505092915050565b600081359050610d02816112eb565b92915050565b600081359050610d1781611302565b92915050565b600060208284031215610d2f57600080fd5b6000610d3d84828501610cf3565b91505092915050565b60008060408385031215610d5957600080fd5b6000610d6785828601610cf3565b9250506020610d7885828601610cf3565b9150509250929050565b600080600060608486031215610d9757600080fd5b6000610da586828701610cf3565b9350506020610db686828701610cf3565b9250506040610dc786828701610d08565b9150509250925092565b60008060408385031215610de457600080fd5b6000610df285828601610cf3565b9250506020610e0385828601610d08565b9150509250929050565b610e1681611280565b82525050565b6000610e296021836111e5565b91507f4f6e6c79206f776e65722063616e2063616c6c20746869732066756e6374696f60008301527f6e000000000000000000000000000000000000000000000000000000000000006020830152604082019050919050565b6000610e8f6017836111e5565b91507f496e76616c6964207472616e736665722076616c75652e0000000000000000006000830152602082019050919050565b6000610ecf6028836111e5565b91507f536166654d617468466f7255696e743235363a207375627472616374696f6e2060008301527f6f766572666c6f770000000000000000000000000000000000000000000000006020830152604082019050919050565b6000610f356015836111e5565b91507f496e76616c69642073686f7274206164647265737300000000000000000000006000830152602082019050919050565b6000610f756025836111e5565b91507f536166654d617468466f7255696e743235363a206164646974696f6e206f766560008301527f72666c6f770000000000000000000000000000000000000000000000000000006020830152604082019050919050565b6000610fdb6047836111e5565b91507f596f752068617665206f6e6c79206f6e65206368616e636520746f206170707260008301527f6f7665202c20796f752063616e206f6e6c79206368616e676520697420746f2060208301527f30206c61746572000000000000000000000000000000000000000000000000006040830152606082019050919050565b60006110676025836111e5565b91507f63616e2774207472616e73666572206f776e657220666f72203078302061646460008301527f726573732e0000000000000000000000000000000000000000000000000000006020830152604082019050919050565b6110c9816112b2565b82525050565b60006020820190506110e46000830184610e0d565b92915050565b6000602082019050818103600083015261110381610e1c565b9050919050565b6000602082019050818103600083015261112381610e82565b9050919050565b6000602082019050818103600083015261114381610ec2565b9050919050565b6000602082019050818103600083015261116381610f28565b9050919050565b6000602082019050818103600083015261118381610f68565b9050919050565b600060208201905081810360008301526111a381610fce565b9050919050565b600060208201905081810360008301526111c38161105a565b9050919050565b60006020820190506111df60008301846110c0565b92915050565b600082825260208201905092915050565b6000611201826112b2565b915061120c836112b2565b9250827fffffffffffffffffffffffffffffffffffffffffffffffffffffffffffffffff03821115611241576112406112bc565b5b828201905092915050565b6000611257826112b2565b9150611262836112b2565b925082821015611275576112746112bc565b5b828203905092915050565b600061128b82611292565b9050919050565b600073ffffffffffffffffffffffffffffffffffffffff82169050919050565b6000819050919050565b7f4e487b7100000000000000000000000000000000000000000000000000000000600052601160045260246000fd5b6112f481611280565b81146112ff57600080fd5b50565b61130b816112b2565b811461131657600080fd5b5056fea2646970667358221220a4a3efae79111f68ba8796c37397aee6c6ce7686861882e57cafdb283cbb5a8664736f6c63430008000033",
  "immutableReferences": {},
  "source": "// SPDX-License-Identifier: GPL-3.0\npragma solidity >=0.7.6 <0.9.0;\nimport './SafeMath.sol';\n\ncontract Ownable{\n    address public owner;\n  \n    constructor() {\n        owner = msg.sender;\n    }\n\n    modifier onlyOwner(){\n        require(msg.sender == owner, \"Only owner can call this function\");\n        _;\n    }\n\n    function transferOwnership(address newOwner) public onlyOwner{\n        require(newOwner != address(0), \"can't transfer owner for 0x0 address.\");\n        owner = newOwner;\n    }\n}\n\nabstract contract ERC20{\n    uint public totalSupply;\n    function transfer(address to, uint value) virtual public;\n    function balanceOf(address owner) virtual public view returns(uint);\n    function allowance(address owner, address spender) virtual public view returns(uint);\n    function transferFrom(address from, address to, uint value) virtual public;\n    function approve(address spender, uint value) virtual public;\n    event Transfer(address indexed from, address indexed to, uint value);\n    event Approval(address indexed owner, address indexed spender, uint value);\n }\n\ncontract FSCoin is Ownable, ERC20{\n    using SafeMath for uint;\n    mapping(address => uint) public balances;\n    mapping(address => mapping(address => uint)) public allowed;\n    uint public constant MAX_UINT = 2**256-1;\n    \n    modifier onlyPayloadSize(uint size){\n        require(!(msg.data.length < size+4), \"Invalid short address\");\n        _;\n    }\n    \n    constructor(uint _totalSupply){\n        totalSupply = _totalSupply;\n        balances[owner] = _totalSupply;\n    }\n\n    function transfer(address _to, uint _value) override public onlyPayloadSize(2 * 32){\n        require(_value > 0, \"Invalid transfer value.\");\n        balances[msg.sender] = balances[msg.sender].sub(_value);\n        balances[_to] = balances[_to].add(_value);\n        emit Transfer(msg.sender, _to, _value);\n    }\n    \n    function balanceOf(address owner) override public view returns(uint){\n        return balances[owner];\n    }\n    \n    function transferFrom(address _from, address _to, uint _value) override public onlyPayloadSize(2 * 32){\n        uint _allowance = allowed[_from][msg.sender];\n        if (_allowance < MAX_UINT){\n            allowed[_from][msg.sender] = _allowance.sub(_value);\n        }\n        balances[_from] = balances[_from].sub(_value);\n        balances[_to] = balances[_to].add(_value);\n        emit Transfer(_from, _to, _value);\n    }\n    \n    function approve(address _spender, uint _value) override public onlyPayloadSize(2 * 32){\n        require(!(_value != 0 && allowed[msg.sender][_spender] != 0), \"You have only one chance to approve , you can only change it to 0 later\");\n        allowed[msg.sender][_spender] = _value;\n        emit Approval(msg.sender, _spender, _value);\n    }\n    \n    function allowance(address _owner, address _spender) override public view returns(uint remaining){\n        return allowed[_owner][_spender];\n    }\n    \n}",
  "sourcePath": "/Users/xwj/projects/blockchain_projects/FedSharing/fed_sharing/mainchain/trufflejs/contracts/FSCoin.sol",
  "compiler": {
    "name": "solc",
    "version": "0.8.0+commit.c7dfd78e.Emscripten.clang"
  },
  "schemaVersion": "3.4.3",
  "updatedAt": "2021-10-21T05:51:17.370Z",
  "networkType": "ethereum",
  "devdoc": {
    "kind": "dev",
    "methods": {},
    "version": 1
  },
  "userdoc": {
    "kind": "user",
    "methods": {},
    "version": 1
  }
}